{
  "_format": "hh-sol-artifact-1",
  "contractName": "BKCVerify",
  "sourceName": "contracts/BKCVerify.sol",
  "abi": [
    {
      "inputs": [],
      "stateMutability": "nonpayable",
      "type": "constructor"
    },
    {
      "anonymous": false,
      "inputs": [
        {
          "indexed": true,
          "internalType": "string",
          "name": "documentId",
          "type": "string"
        },
        {
          "indexed": true,
          "internalType": "address",
          "name": "owner",
          "type": "address"
        },
        {
          "indexed": false,
          "internalType": "string",
          "name": "documentHash",
          "type": "string"
        },
        {
          "indexed": false,
          "internalType": "uint256",
          "name": "timestamp",
          "type": "uint256"
        }
      ],
      "name": "DocumentCreated",
      "type": "event"
    },
    {
      "anonymous": false,
      "inputs": [
        {
          "indexed": true,
          "internalType": "string",
          "name": "documentId",
          "type": "string"
        },
        {
          "indexed": true,
          "internalType": "address",
          "name": "signer",
          "type": "address"
        },
        {
          "indexed": false,
          "internalType": "string",
          "name": "signatureHash",
          "type": "string"
        },
        {
          "indexed": false,
          "internalType": "uint256",
          "name": "timestamp",
          "type": "uint256"
        }
      ],
      "name": "DocumentSigned",
      "type": "event"
    },
    {
      "anonymous": false,
      "inputs": [
        {
          "indexed": true,
          "internalType": "string",
          "name": "userId",
          "type": "string"
        },
        {
          "indexed": true,
          "internalType": "address",
          "name": "walletAddress",
          "type": "address"
        },
        {
          "indexed": false,
          "internalType": "string",
          "name": "identityHash",
          "type": "string"
        },
        {
          "indexed": false,
          "internalType": "uint256",
          "name": "timestamp",
          "type": "uint256"
        }
      ],
      "name": "IdentityVerified",
      "type": "event"
    },
    {
      "anonymous": false,
      "inputs": [
        {
          "indexed": true,
          "internalType": "address",
          "name": "previousOwner",
          "type": "address"
        },
        {
          "indexed": true,
          "internalType": "address",
          "name": "newOwner",
          "type": "address"
        }
      ],
      "name": "OwnershipTransferred",
      "type": "event"
    },
    {
      "anonymous": false,
      "inputs": [
        {
          "indexed": true,
          "internalType": "string",
          "name": "userId",
          "type": "string"
        },
        {
          "indexed": true,
          "internalType": "address",
          "name": "walletAddress",
          "type": "address"
        }
      ],
      "name": "UserRegistered",
      "type": "event"
    },
    {
      "anonymous": false,
      "inputs": [
        {
          "indexed": true,
          "internalType": "address",
          "name": "verifier",
          "type": "address"
        },
        {
          "indexed": false,
          "internalType": "bool",
          "name": "authorized",
          "type": "bool"
        }
      ],
      "name": "VerifierAuthorized",
      "type": "event"
    },
    {
      "inputs": [
        {
          "internalType": "address",
          "name": "",
          "type": "address"
        }
      ],
      "name": "authorizedVerifiers",
      "outputs": [
        {
          "internalType": "bool",
          "name": "",
          "type": "bool"
        }
      ],
      "stateMutability": "view",
      "type": "function"
    },
    {
      "inputs": [
        {
          "internalType": "string",
          "name": "documentId",
          "type": "string"
        },
        {
          "internalType": "string",
          "name": "documentHash",
          "type": "string"
        },
        {
          "internalType": "uint256",
          "name": "requiredSignatures",
          "type": "uint256"
        }
      ],
      "name": "createDocument",
      "outputs": [],
      "stateMutability": "nonpayable",
      "type": "function"
    },
    {
      "inputs": [
        {
          "internalType": "string",
          "name": "",
          "type": "string"
        },
        {
          "internalType": "uint256",
          "name": "",
          "type": "uint256"
        }
      ],
      "name": "documentSignatures",
      "outputs": [
        {
          "internalType": "address",
          "name": "signer",
          "type": "address"
        },
        {
          "internalType": "uint256",
          "name": "timestamp",
          "type": "uint256"
        },
        {
          "internalType": "string",
          "name": "signatureHash",
          "type": "string"
        },
        {
          "internalType": "bool",
          "name": "valid",
          "type": "bool"
        }
      ],
      "stateMutability": "view",
      "type": "function"
    },
    {
      "inputs": [
        {
          "internalType": "string",
          "name": "",
          "type": "string"
        }
      ],
      "name": "documents",
      "outputs": [
        {
          "internalType": "string",
          "name": "documentId",
          "type": "string"
        },
        {
          "internalType": "string",
          "name": "documentHash",
          "type": "string"
        },
        {
          "internalType": "uint256",
          "name": "timestamp",
          "type": "uint256"
        },
        {
          "internalType": "address",
          "name": "owner",
          "type": "address"
        },
        {
          "internalType": "bool",
          "name": "signed",
          "type": "bool"
        },
        {
          "internalType": "uint256",
          "name": "signatureCount",
          "type": "uint256"
        },
        {
          "internalType": "uint256",
          "name": "requiredSignatures",
          "type": "uint256"
        }
      ],
      "stateMutability": "view",
      "type": "function"
    },
    {
      "inputs": [],
      "name": "getContractStats",
      "outputs": [
        {
          "internalType": "uint256",
          "name": "totalUsers",
          "type": "uint256"
        },
        {
          "internalType": "uint256",
          "name": "totalDocuments",
          "type": "uint256"
        },
        {
          "internalType": "uint256",
          "name": "totalSignatures",
          "type": "uint256"
        }
      ],
      "stateMutability": "view",
      "type": "function"
    },
    {
      "inputs": [
        {
          "internalType": "string",
          "name": "documentId",
          "type": "string"
        }
      ],
      "name": "getDocument",
      "outputs": [
        {
          "components": [
            {
              "internalType": "string",
              "name": "documentId",
              "type": "string"
            },
            {
              "internalType": "string",
              "name": "documentHash",
              "type": "string"
            },
            {
              "internalType": "uint256",
              "name": "timestamp",
              "type": "uint256"
            },
            {
              "internalType": "address",
              "name": "owner",
              "type": "address"
            },
            {
              "internalType": "bool",
              "name": "signed",
              "type": "bool"
            },
            {
              "internalType": "uint256",
              "name": "signatureCount",
              "type": "uint256"
            },
            {
              "internalType": "uint256",
              "name": "requiredSignatures",
              "type": "uint256"
            }
          ],
          "internalType": "struct BKCVerify.Document",
          "name": "document",
          "type": "tuple"
        }
      ],
      "stateMutability": "view",
      "type": "function"
    },
    {
      "inputs": [
        {
          "internalType": "string",
          "name": "documentId",
          "type": "string"
        }
      ],
      "name": "getDocumentSignatures",
      "outputs": [
        {
          "components": [
            {
              "internalType": "address",
              "name": "signer",
              "type": "address"
            },
            {
              "internalType": "uint256",
              "name": "timestamp",
              "type": "uint256"
            },
            {
              "internalType": "string",
              "name": "signatureHash",
              "type": "string"
            },
            {
              "internalType": "bool",
              "name": "valid",
              "type": "bool"
            }
          ],
          "internalType": "struct BKCVerify.Signature[]",
          "name": "signatures",
          "type": "tuple[]"
        }
      ],
      "stateMutability": "view",
      "type": "function"
    },
    {
      "inputs": [
        {
          "internalType": "string",
          "name": "userId",
          "type": "string"
        }
      ],
      "name": "getIdentityVerification",
      "outputs": [
        {
          "components": [
            {
              "internalType": "string",
              "name": "userId",
              "type": "string"
            },
            {
              "internalType": "string",
              "name": "identityHash",
              "type": "string"
            },
            {
              "internalType": "uint256",
              "name": "timestamp",
              "type": "uint256"
            },
            {
              "internalType": "bool",
              "name": "verified",
              "type": "bool"
            },
            {
              "internalType": "address",
              "name": "verifier",
              "type": "address"
            },
            {
              "internalType": "string",
              "name": "certificateHash",
              "type": "string"
            },
            {
              "internalType": "string",
              "name": "fullNameHash",
              "type": "string"
            },
            {
              "internalType": "string",
              "name": "dateOfBirthHash",
              "type": "string"
            },
            {
              "internalType": "string",
              "name": "nationalityHash",
              "type": "string"
            },
            {
              "internalType": "string",
              "name": "documentTypeHash",
              "type": "string"
            },
            {
              "internalType": "string",
              "name": "documentNumberHash",
              "type": "string"
            }
          ],
          "internalType": "struct BKCVerify.IdentityVerification",
          "name": "verification",
          "type": "tuple"
        }
      ],
      "stateMutability": "view",
      "type": "function"
    },
    {
      "inputs": [
        {
          "internalType": "address",
          "name": "walletAddress",
          "type": "address"
        }
      ],
      "name": "getUser",
      "outputs": [
        {
          "components": [
            {
              "internalType": "string",
              "name": "userId",
              "type": "string"
            },
            {
              "internalType": "address",
              "name": "walletAddress",
              "type": "address"
            },
            {
              "internalType": "bool",
              "name": "identityVerified",
              "type": "bool"
            },
            {
              "internalType": "uint256",
              "name": "verificationTimestamp",
              "type": "uint256"
            },
            {
              "internalType": "string",
              "name": "identityHash",
              "type": "string"
            },
            {
              "internalType": "uint256",
              "name": "documentCount",
              "type": "uint256"
            },
            {
              "internalType": "uint256",
              "name": "signatureCount",
              "type": "uint256"
            }
          ],
          "internalType": "struct BKCVerify.User",
          "name": "user",
          "type": "tuple"
        }
      ],
      "stateMutability": "view",
      "type": "function"
    },
    {
      "inputs": [
        {
          "internalType": "string",
          "name": "",
          "type": "string"
        }
      ],
      "name": "identityVerifications",
      "outputs": [
        {
          "internalType": "string",
          "name": "userId",
          "type": "string"
        },
        {
          "internalType": "string",
          "name": "identityHash",
          "type": "string"
        },
        {
          "internalType": "uint256",
          "name": "timestamp",
          "type": "uint256"
        },
        {
          "internalType": "bool",
          "name": "verified",
          "type": "bool"
        },
        {
          "internalType": "address",
          "name": "verifier",
          "type": "address"
        },
        {
          "internalType": "string",
          "name": "certificateHash",
          "type": "string"
        },
        {
          "internalType": "string",
          "name": "fullNameHash",
          "type": "string"
        },
        {
          "internalType": "string",
          "name": "dateOfBirthHash",
          "type": "string"
        },
        {
          "internalType": "string",
          "name": "nationalityHash",
          "type": "string"
        },
        {
          "internalType": "string",
          "name": "documentTypeHash",
          "type": "string"
        },
        {
          "internalType": "string",
          "name": "documentNumberHash",
          "type": "string"
        }
      ],
      "stateMutability": "view",
      "type": "function"
    },
    {
      "inputs": [
        {
          "internalType": "address",
          "name": "verifier",
          "type": "address"
        }
      ],
      "name": "isAuthorizedVerifier",
      "outputs": [
        {
          "internalType": "bool",
          "name": "",
          "type": "bool"
        }
      ],
      "stateMutability": "view",
      "type": "function"
    },
    {
      "inputs": [],
      "name": "owner",
      "outputs": [
        {
          "internalType": "address",
          "name": "",
          "type": "address"
        }
      ],
      "stateMutability": "view",
      "type": "function"
    },
    {
      "inputs": [
        {
          "internalType": "string",
          "name": "userId",
          "type": "string"
        },
        {
          "internalType": "address",
          "name": "walletAddress",
          "type": "address"
        }
      ],
      "name": "registerUser",
      "outputs": [],
      "stateMutability": "nonpayable",
      "type": "function"
    },
    {
      "inputs": [],
      "name": "renounceOwnership",
      "outputs": [],
      "stateMutability": "nonpayable",
      "type": "function"
    },
    {
      "inputs": [
        {
          "internalType": "address",
          "name": "verifier",
          "type": "address"
        },
        {
          "internalType": "bool",
          "name": "authorized",
          "type": "bool"
        }
      ],
      "name": "setVerifierAuthorization",
      "outputs": [],
      "stateMutability": "nonpayable",
      "type": "function"
    },
    {
      "inputs": [
        {
          "internalType": "string",
          "name": "documentId",
          "type": "string"
        },
        {
          "internalType": "string",
          "name": "signatureHash",
          "type": "string"
        }
      ],
      "name": "signDocument",
      "outputs": [],
      "stateMutability": "nonpayable",
      "type": "function"
    },
    {
      "inputs": [
        {
          "internalType": "string",
          "name": "userId",
          "type": "string"
        },
        {
          "internalType": "string",
          "name": "identityHash",
          "type": "string"
        },
        {
          "internalType": "address",
          "name": "walletAddress",
          "type": "address"
        },
        {
          "internalType": "string",
          "name": "fullNameHash",
          "type": "string"
        },
        {
          "internalType": "string",
          "name": "dateOfBirthHash",
          "type": "string"
        },
        {
          "internalType": "string",
          "name": "nationalityHash",
          "type": "string"
        },
        {
          "internalType": "string",
          "name": "documentTypeHash",
          "type": "string"
        },
        {
          "internalType": "string",
          "name": "documentNumberHash",
          "type": "string"
        }
      ],
      "name": "submitIdentityVerification",
      "outputs": [],
      "stateMutability": "nonpayable",
      "type": "function"
    },
    {
      "inputs": [
        {
          "internalType": "address",
          "name": "newOwner",
          "type": "address"
        }
      ],
      "name": "transferOwnership",
      "outputs": [],
      "stateMutability": "nonpayable",
      "type": "function"
    },
    {
      "inputs": [
        {
          "internalType": "string",
          "name": "",
          "type": "string"
        }
      ],
      "name": "usedDocumentHashes",
      "outputs": [
        {
          "internalType": "bool",
          "name": "",
          "type": "bool"
        }
      ],
      "stateMutability": "view",
      "type": "function"
    },
    {
      "inputs": [
        {
          "internalType": "string",
          "name": "",
          "type": "string"
        }
      ],
      "name": "usedIdentityHashes",
      "outputs": [
        {
          "internalType": "bool",
          "name": "",
          "type": "bool"
        }
      ],
      "stateMutability": "view",
      "type": "function"
    },
    {
      "inputs": [
        {
          "internalType": "address",
          "name": "",
          "type": "address"
        }
      ],
      "name": "users",
      "outputs": [
        {
          "internalType": "string",
          "name": "userId",
          "type": "string"
        },
        {
          "internalType": "address",
          "name": "walletAddress",
          "type": "address"
        },
        {
          "internalType": "bool",
          "name": "identityVerified",
          "type": "bool"
        },
        {
          "internalType": "uint256",
          "name": "verificationTimestamp",
          "type": "uint256"
        },
        {
          "internalType": "string",
          "name": "identityHash",
          "type": "string"
        },
        {
          "internalType": "uint256",
          "name": "documentCount",
          "type": "uint256"
        },
        {
          "internalType": "uint256",
          "name": "signatureCount",
          "type": "uint256"
        }
      ],
      "stateMutability": "view",
      "type": "function"
    }
  ],
  "bytecode": "0x608060405234801561001057600080fd5b5061001a3361003e565b6001808055336000908152600960205260409020805460ff1916909117905561008e565b600080546001600160a01b038381166001600160a01b0319831681178455604051919092169283917f8be0079c531659141344cd1fd0a4f28419497f9722a3daafe3b4186f6b6457e09190a35050565b612f33806200009e6000396000f3fe608060405234801561001057600080fd5b50600436106101375760003560e01c80638d58bf02116100b8578063a89dd9d71161007c578063a89dd9d7146102fd578063b10c3b401461031d578063b3dd697b1461034b578063dfe6b5d614610371578063f2fde38b14610390578063fab97aac146103a357600080fd5b80638d58bf02146102735780638da5cb5b14610286578063996a88f0146102a15780639a891716146102b4578063a87430ba146102d757600080fd5b80636cacbf30116100ff5780636cacbf30146101ee5780636f77926b14610201578063715018a6146102215780637ccb6a64146102295780637e6c31fd1461024957600080fd5b80630b40a0ac1461013c5780630dd78e54146101655780630e54b872146101a357806314267415146101b857806341e4422f146101db575b600080fd5b61014f61014a3660046124ba565b6103b6565b60405161015c9190612547565b60405180910390f35b6101936101733660046124ba565b8051602081830181018051600a8252928201919093012091525460ff1681565b604051901515815260200161015c565b6101b66101b1366004612692565b610910565b005b6101cb6101c63660046126e0565b610ae0565b60405161015c9493929190612725565b6101b66101e936600461275f565b610bce565b6101936101fc3660046127cc565b610e1e565b61021461020f3660046127cc565b610e58565b60405161015c91906127ee565b6101b6611037565b61023c6102373660046124ba565b61104b565b60405161015c9190612871565b61025c6102573660046124ba565b61122d565b60405161015c9b9a999897969594939291906128f4565b6101b66102813660046129cc565b6116db565b6000546040516001600160a01b03909116815260200161015c565b6101b66102af366004612a30565b611ad7565b6101936102c23660046127cc565b60096020526000908152604090205460ff1681565b6102ea6102e53660046127cc565b611e5e565b60405161015c9796959493929190612b5c565b61031061030b3660046124ba565b611fba565b60405161015c9190612bb6565b61019361032b3660046124ba565b8051602081830181018051600b8252928201919093012091525460ff1681565b61035e6103593660046124ba565b6120fb565b60405161015c9796959493929190612c4f565b600080806040805193845260208401929092529082015260600161015c565b6101b661039e3660046127cc565b612261565b6101b66103b1366004612ca8565b6122da565b61041e60405180610160016040528060608152602001606081526020016000815260200160001515815260200160006001600160a01b031681526020016060815260200160608152602001606081526020016060815260200160608152602001606081525090565b60058260405161042e9190612ce4565b90815260200160405180910390206040518061016001604052908160008201805461045890612d00565b80601f016020809104026020016040519081016040528092919081815260200182805461048490612d00565b80156104d15780601f106104a6576101008083540402835291602001916104d1565b820191906000526020600020905b8154815290600101906020018083116104b457829003601f168201915b505050505081526020016001820180546104ea90612d00565b80601f016020809104026020016040519081016040528092919081815260200182805461051690612d00565b80156105635780601f1061053857610100808354040283529160200191610563565b820191906000526020600020905b81548152906001019060200180831161054657829003601f168201915b505050918352505060028201546020820152600382015460ff81161515604083015261010090046001600160a01b031660608201526004820180546080909201916105ad90612d00565b80601f01602080910402602001604051908101604052809291908181526020018280546105d990612d00565b80156106265780601f106105fb57610100808354040283529160200191610626565b820191906000526020600020905b81548152906001019060200180831161060957829003601f168201915b5050505050815260200160058201805461063f90612d00565b80601f016020809104026020016040519081016040528092919081815260200182805461066b90612d00565b80156106b85780601f1061068d576101008083540402835291602001916106b8565b820191906000526020600020905b81548152906001019060200180831161069b57829003601f168201915b505050505081526020016006820180546106d190612d00565b80601f01602080910402602001604051908101604052809291908181526020018280546106fd90612d00565b801561074a5780601f1061071f5761010080835404028352916020019161074a565b820191906000526020600020905b81548152906001019060200180831161072d57829003601f168201915b5050505050815260200160078201805461076390612d00565b80601f016020809104026020016040519081016040528092919081815260200182805461078f90612d00565b80156107dc5780601f106107b1576101008083540402835291602001916107dc565b820191906000526020600020905b8154815290600101906020018083116107bf57829003601f168201915b505050505081526020016008820180546107f590612d00565b80601f016020809104026020016040519081016040528092919081815260200182805461082190612d00565b801561086e5780601f106108435761010080835404028352916020019161086e565b820191906000526020600020905b81548152906001019060200180831161085157829003601f168201915b5050505050815260200160098201805461088790612d00565b80601f01602080910402602001604051908101604052809291908181526020018280546108b390612d00565b80156109005780601f106108d557610100808354040283529160200191610900565b820191906000526020600020905b8154815290600101906020018083116108e357829003601f168201915b5050505050815250509050919050565b6001600160a01b0381166000908152600860205260409020805461093390612d00565b15905061097d5760405162461bcd60e51b81526020600482015260136024820152725573657220616c72656164792065786973747360681b60448201526064015b60405180910390fd5b60008251116109c05760405162461bcd60e51b815260206004820152600f60248201526e125b9d985b1a59081d5cd95c881251608a1b6044820152606401610974565b6040805160e0810182528381526001600160a01b038316602080830182905260008385018190526060840181905284518083018652818152608085015260a0840181905260c08401819052918252600890529190912081518190610a249082612d89565b50602082015160018201805460408501511515600160a01b026001600160a81b03199091166001600160a01b03909316929092179190911790556060820151600282015560808201516003820190610a7c9082612d89565b5060a0820151816004015560c08201518160050155905050806001600160a01b031682604051610aac9190612ce4565b604051908190038120907f7f605d0ff47d2a070e456b69ce2a36041788910b64443c7f4c6d307993cade2c90600090a35050565b81516020818401810180516007825292820191850191909120919052805482908110610b0b57600080fd5b60009182526020909120600490910201805460018201546002830180546001600160a01b03909316955090935090610b4290612d00565b80601f0160208091040260200160405190810160405280929190818152602001828054610b6e90612d00565b8015610bbb5780601f10610b9057610100808354040283529160200191610bbb565b820191906000526020600020905b815481529060010190602001808311610b9e57829003601f168201915b5050506003909301549192505060ff1684565b600b82604051610bde9190612ce4565b9081526040519081900360200190205460ff1615610c3e5760405162461bcd60e51b815260206004820152601a60248201527f446f63756d656e74206861736820616c726561647920757365640000000000006044820152606401610974565b60008111610ca15760405162461bcd60e51b815260206004820152602a60248201527f5265717569726564207369676e617475726573206d75737420626520677265616044820152690746572207468616e20360b41b6064820152608401610974565b6001600b83604051610cb39190612ce4565b9081526040805160209281900383018120805460ff19169415159490941790935560e083018152858352908201849052428282015233606083015260006080830181905260a083015260c0820183905251600690610d12908690612ce4565b90815260405190819003602001902081518190610d2f9082612d89565b5060208201516001820190610d449082612d89565b506040828101516002830155606083015160038301805460808601511515600160a01b026001600160a81b03199091166001600160a01b039093169290921791909117905560a083015160048084019190915560c0909301516005909201919091553360009081526008602052908120909101805491610dc383612e49565b90915550506040513390610dd8908590612ce4565b60405180910390207f895002588ec1007f2de5443b4b99a08f8b55bb3a8d16dd61dd20cb4e166b8d7c8442604051610e11929190612e70565b60405180910390a3505050565b6001600160a01b03811660009081526009602052604081205460ff1680610e5257506000546001600160a01b038381169116145b92915050565b610ea36040518060e001604052806060815260200160006001600160a01b03168152602001600015158152602001600081526020016060815260200160008152602001600081525090565b6001600160a01b03821660009081526008602052604090819020815160e08101909252805482908290610ed590612d00565b80601f0160208091040260200160405190810160405280929190818152602001828054610f0190612d00565b8015610f4e5780601f10610f2357610100808354040283529160200191610f4e565b820191906000526020600020905b815481529060010190602001808311610f3157829003601f168201915b505050918352505060018201546001600160a01b0381166020830152600160a01b900460ff161515604082015260028201546060820152600382018054608090920191610f9a90612d00565b80601f0160208091040260200160405190810160405280929190818152602001828054610fc690612d00565b80156110135780601f10610fe857610100808354040283529160200191611013565b820191906000526020600020905b815481529060010190602001808311610ff657829003601f168201915b50505050508152602001600482015481526020016005820154815250509050919050565b61103f612341565b611049600061239b565b565b6110966040518060e0016040528060608152602001606081526020016000815260200160006001600160a01b0316815260200160001515815260200160008152602001600081525090565b6006826040516110a69190612ce4565b90815260200160405180910390206040518060e00160405290816000820180546110cf90612d00565b80601f01602080910402602001604051908101604052809291908181526020018280546110fb90612d00565b80156111485780601f1061111d57610100808354040283529160200191611148565b820191906000526020600020905b81548152906001019060200180831161112b57829003601f168201915b5050505050815260200160018201805461116190612d00565b80601f016020809104026020016040519081016040528092919081815260200182805461118d90612d00565b80156111da5780601f106111af576101008083540402835291602001916111da565b820191906000526020600020905b8154815290600101906020018083116111bd57829003601f168201915b50505091835250506002820154602082015260038201546001600160a01b0381166040830152600160a01b900460ff16151560608201526004820154608082015260059091015460a09091015292915050565b805160208183018101805160058252928201919093012091528054819061125390612d00565b80601f016020809104026020016040519081016040528092919081815260200182805461127f90612d00565b80156112cc5780601f106112a1576101008083540402835291602001916112cc565b820191906000526020600020905b8154815290600101906020018083116112af57829003601f168201915b5050505050908060010180546112e190612d00565b80601f016020809104026020016040519081016040528092919081815260200182805461130d90612d00565b801561135a5780601f1061132f5761010080835404028352916020019161135a565b820191906000526020600020905b81548152906001019060200180831161133d57829003601f168201915b50505050600283015460038401546004850180549495929460ff831694506101009092046001600160a01b0316929161139290612d00565b80601f01602080910402602001604051908101604052809291908181526020018280546113be90612d00565b801561140b5780601f106113e05761010080835404028352916020019161140b565b820191906000526020600020905b8154815290600101906020018083116113ee57829003601f168201915b50505050509080600501805461142090612d00565b80601f016020809104026020016040519081016040528092919081815260200182805461144c90612d00565b80156114995780601f1061146e57610100808354040283529160200191611499565b820191906000526020600020905b81548152906001019060200180831161147c57829003601f168201915b5050505050908060060180546114ae90612d00565b80601f01602080910402602001604051908101604052809291908181526020018280546114da90612d00565b80156115275780601f106114fc57610100808354040283529160200191611527565b820191906000526020600020905b81548152906001019060200180831161150a57829003601f168201915b50505050509080600701805461153c90612d00565b80601f016020809104026020016040519081016040528092919081815260200182805461156890612d00565b80156115b55780601f1061158a576101008083540402835291602001916115b5565b820191906000526020600020905b81548152906001019060200180831161159857829003601f168201915b5050505050908060080180546115ca90612d00565b80601f01602080910402602001604051908101604052809291908181526020018280546115f690612d00565b80156116435780601f1061161857610100808354040283529160200191611643565b820191906000526020600020905b81548152906001019060200180831161162657829003601f168201915b50505050509080600901805461165890612d00565b80601f016020809104026020016040519081016040528092919081815260200182805461168490612d00565b80156116d15780601f106116a6576101008083540402835291602001916116d1565b820191906000526020600020905b8154815290600101906020018083116116b457829003601f168201915b505050505090508b565b816006816040516116ec9190612ce4565b90815260200160405180910390206002015460000361174d5760405162461bcd60e51b815260206004820152601760248201527f446f63756d656e7420646f6573206e6f742065786973740000000000000000006044820152606401610974565b33600090815260086020526040902060010154600160a01b900460ff166117ae5760405162461bcd60e51b81526020600482015260156024820152741259195b9d1a5d1e481b9bdd081d995c9a599a5959605a1b6044820152606401610974565b6006836040516117be9190612ce4565b9081526040519081900360200190206003015460ff600160a01b90910416156118295760405162461bcd60e51b815260206004820152601d60248201527f446f63756d656e7420616c72656164792066756c6c79207369676e65640000006044820152606401610974565b600060078460405161183b9190612ce4565b9081526020016040518091039020905060005b81548110156118ec57336001600160a01b031682828154811061187357611873612e92565b60009182526020909120600490910201546001600160a01b0316036118da5760405162461bcd60e51b815260206004820152601c60248201527f416c7265616479207369676e6564207468697320646f63756d656e74000000006044820152606401610974565b806118e481612e49565b91505061184e565b506040805160808101825233815242602082015280820185905260016060820152905160079061191d908790612ce4565b9081526040805160209281900383019020805460018082018355600092835291849020855160049092020180546001600160a01b0319166001600160a01b03909216919091178155928401519083015582015182919060028201906119829082612d89565b50606091909101516003909101805460ff19169115159190911790556040516006906119af908790612ce4565b90815260405190819003602001902060040180549060006119cf83612e49565b90915550503360009081526008602052604081206005018054916119f283612e49565b9190505550600685604051611a079190612ce4565b908152602001604051809103902060050154600686604051611a299190612ce4565b90815260200160405180910390206004015410611a7f576001600686604051611a529190612ce4565b9081526040519081900360200190206003018054911515600160a01b0260ff60a01b199092169190911790555b6040513390611a8f908790612ce4565b60405180910390207f81ffdb71923cc53a03997e3f588d296b6c1170e63dad2bb2b157649f7c63fbc88642604051611ac8929190612e70565b60405180910390a35050505050565b3360009081526009602052604090205460ff1680611aff57506000546001600160a01b031633145b611b4b5760405162461bcd60e51b815260206004820152601760248201527f4e6f7420617574686f72697a65642076657269666965720000000000000000006044820152606401610974565b600a87604051611b5b9190612ce4565b9081526040519081900360200190205460ff1615611bbb5760405162461bcd60e51b815260206004820152601a60248201527f4964656e74697479206861736820616c726561647920757365640000000000006044820152606401610974565b6001600160a01b03861660009081526008602052604090208054611bde90612d00565b9050600003611c255760405162461bcd60e51b8152602060048201526013602482015272155cd95c88191bd95cc81b9bdd08195e1a5cdd606a1b6044820152606401610974565b6001600a88604051611c379190612ce4565b9081526040805160209281900383018120805460ff191694151594909417909355610160830181528a835290820189905242908201526001606082015233608082015260a08101611c888a8a6123eb565b815260200186815260200185815260200184815260200183815260200182815250600589604051611cb99190612ce4565b90815260405190819003602001902081518190611cd69082612d89565b5060208201516001820190611ceb9082612d89565b5060408201516002820155606082015160038201805460808501516001600160a01b031661010002610100600160a81b0319931515939093166001600160a81b03199091161791909117905560a08201516004820190611d4b9082612d89565b5060c08201516005820190611d609082612d89565b5060e08201516006820190611d759082612d89565b506101008201516007820190611d8b9082612d89565b506101208201516008820190611da19082612d89565b506101408201516009820190611db79082612d89565b5050506001600160a01b038616600090815260086020526040902060018101805460ff60a01b1916600160a01b179055426002820155600301611dfa8882612d89565b50856001600160a01b031688604051611e139190612ce4565b60405180910390207f2c4c77dfdff8e0e1a77fd30e9c70f58ece73d8f21a856b89b0fb91a420752da38942604051611e4c929190612e70565b60405180910390a35050505050505050565b600860205260009081526040902080548190611e7990612d00565b80601f0160208091040260200160405190810160405280929190818152602001828054611ea590612d00565b8015611ef25780601f10611ec757610100808354040283529160200191611ef2565b820191906000526020600020905b815481529060010190602001808311611ed557829003601f168201915b505050506001830154600284015460038501805494956001600160a01b03841695600160a01b90940460ff1694509192611f2b90612d00565b80601f0160208091040260200160405190810160405280929190818152602001828054611f5790612d00565b8015611fa45780601f10611f7957610100808354040283529160200191611fa4565b820191906000526020600020905b815481529060010190602001808311611f8757829003601f168201915b5050505050908060040154908060050154905087565b6060600782604051611fcc9190612ce4565b9081526020016040518091039020805480602002602001604051908101604052809291908181526020016000905b828210156120f0576000848152602090819020604080516080810182526004860290920180546001600160a01b031683526001810154938301939093526002830180549293929184019161204d90612d00565b80601f016020809104026020016040519081016040528092919081815260200182805461207990612d00565b80156120c65780601f1061209b576101008083540402835291602001916120c6565b820191906000526020600020905b8154815290600101906020018083116120a957829003601f168201915b50505091835250506003919091015460ff1615156020918201529082526001929092019101611ffa565b505050509050919050565b805160208183018101805160068252928201919093012091528054819061212190612d00565b80601f016020809104026020016040519081016040528092919081815260200182805461214d90612d00565b801561219a5780601f1061216f5761010080835404028352916020019161219a565b820191906000526020600020905b81548152906001019060200180831161217d57829003601f168201915b5050505050908060010180546121af90612d00565b80601f01602080910402602001604051908101604052809291908181526020018280546121db90612d00565b80156122285780601f106121fd57610100808354040283529160200191612228565b820191906000526020600020905b81548152906001019060200180831161220b57829003601f168201915b50505050600283015460038401546004850154600590950154939491936001600160a01b0382169350600160a01b90910460ff16919087565b612269612341565b6001600160a01b0381166122ce5760405162461bcd60e51b815260206004820152602660248201527f4f776e61626c653a206e6577206f776e657220697320746865207a65726f206160448201526564647265737360d01b6064820152608401610974565b6122d78161239b565b50565b6122e2612341565b6001600160a01b038216600081815260096020908152604091829020805460ff191685151590811790915591519182527f549bea741606fea6131feb992ab8021bef3bb5dfc19f6d30184944614a875459910160405180910390a25050565b6000546001600160a01b031633146110495760405162461bcd60e51b815260206004820181905260248201527f4f776e61626c653a2063616c6c6572206973206e6f7420746865206f776e65726044820152606401610974565b600080546001600160a01b038381166001600160a01b0319831681178455604051919092169283917f8be0079c531659141344cd1fd0a4f28419497f9722a3daafe3b4186f6b6457e09190a35050565b60608282604051602001612400929190612ea8565b604051602081830303815290604052905092915050565b634e487b7160e01b600052604160045260246000fd5b600082601f83011261243e57600080fd5b813567ffffffffffffffff8082111561245957612459612417565b604051601f8301601f19908116603f0116810190828211818310171561248157612481612417565b8160405283815286602085880101111561249a57600080fd5b836020870160208301376000602085830101528094505050505092915050565b6000602082840312156124cc57600080fd5b813567ffffffffffffffff8111156124e357600080fd5b6124ef8482850161242d565b949350505050565b60005b838110156125125781810151838201526020016124fa565b50506000910152565b600081518084526125338160208601602086016124f7565b601f01601f19169290920160200192915050565b602081526000825161016080602085015261256661018085018361251b565b91506020850151601f1980868503016040870152612584848361251b565b935060408701516060870152606087015191506125a5608087018315159052565b60808701516001600160a01b03811660a0880152915060a08701519150808685030160c08701526125d6848361251b565b935060c08701519150808685030160e08701526125f3848361251b565b935060e08701519150610100818786030181880152612612858461251b565b945080880151925050610120818786030181880152612631858461251b565b945080880151925050610140818786030181880152612650858461251b565b90880151878203909201848801529350905061266c838261251b565b9695505050505050565b80356001600160a01b038116811461268d57600080fd5b919050565b600080604083850312156126a557600080fd5b823567ffffffffffffffff8111156126bc57600080fd5b6126c88582860161242d565b9250506126d760208401612676565b90509250929050565b600080604083850312156126f357600080fd5b823567ffffffffffffffff81111561270a57600080fd5b6127168582860161242d565b95602094909401359450505050565b60018060a01b038516815283602082015260806040820152600061274c608083018561251b565b9050821515606083015295945050505050565b60008060006060848603121561277457600080fd5b833567ffffffffffffffff8082111561278c57600080fd5b6127988783880161242d565b945060208601359150808211156127ae57600080fd5b506127bb8682870161242d565b925050604084013590509250925092565b6000602082840312156127de57600080fd5b6127e782612676565b9392505050565b602081526000825160e0602084015261280b61010084018261251b565b905060018060a01b036020850151166040840152604084015115156060840152606084015160808401526080840151601f198483030160a0850152612850828261251b565b91505060a084015160c084015260c084015160e08401528091505092915050565b602081526000825160e0602084015261288e61010084018261251b565b90506020840151601f198483030160408501526128ab828261251b565b9150506040840151606084015260018060a01b0360608501511660808401526080840151151560a084015260a084015160c084015260c084015160e08401528091505092915050565b60006101608083526129088184018f61251b565b9050828103602084015261291c818e61251b565b90508b6040840152612932606084018c15159052565b6001600160a01b038a16608084015282810360a0840152612953818a61251b565b905082810360c0840152612967818961251b565b905082810360e084015261297b818861251b565b9050828103610100840152612990818761251b565b90508281036101208401526129a5818661251b565b90508281036101408401526129ba818561251b565b9e9d5050505050505050505050505050565b600080604083850312156129df57600080fd5b823567ffffffffffffffff808211156129f757600080fd5b612a038683870161242d565b93506020850135915080821115612a1957600080fd5b50612a268582860161242d565b9150509250929050565b600080600080600080600080610100898b031215612a4d57600080fd5b883567ffffffffffffffff80821115612a6557600080fd5b612a718c838d0161242d565b995060208b0135915080821115612a8757600080fd5b612a938c838d0161242d565b9850612aa160408c01612676565b975060608b0135915080821115612ab757600080fd5b612ac38c838d0161242d565b965060808b0135915080821115612ad957600080fd5b612ae58c838d0161242d565b955060a08b0135915080821115612afb57600080fd5b612b078c838d0161242d565b945060c08b0135915080821115612b1d57600080fd5b612b298c838d0161242d565b935060e08b0135915080821115612b3f57600080fd5b50612b4c8b828c0161242d565b9150509295985092959890939650565b60e081526000612b6f60e083018a61251b565b6001600160a01b03891660208401528715156040840152606083018790528281036080840152612b9f818761251b565b60a0840195909552505060c0015295945050505050565b60006020808301818452808551808352604092508286019150828160051b87010184880160005b83811015612c4157888303603f19018552815180516001600160a01b03168452878101518885015286810151608088860181905290612c1e8287018261251b565b606093840151151596909301959095525094870194925090860190600101612bdd565b509098975050505050505050565b60e081526000612c6260e083018a61251b565b8281036020840152612c74818a61251b565b604084019890985250506001600160a01b03949094166060850152911515608084015260a083015260c09091015292915050565b60008060408385031215612cbb57600080fd5b612cc483612676565b915060208301358015158114612cd957600080fd5b809150509250929050565b60008251612cf68184602087016124f7565b9190910192915050565b600181811c90821680612d1457607f821691505b602082108103612d3457634e487b7160e01b600052602260045260246000fd5b50919050565b601f821115612d8457600081815260208120601f850160051c81016020861015612d615750805b601f850160051c820191505b81811015612d8057828155600101612d6d565b5050505b505050565b815167ffffffffffffffff811115612da357612da3612417565b612db781612db18454612d00565b84612d3a565b602080601f831160018114612dec5760008415612dd45750858301515b600019600386901b1c1916600185901b178555612d80565b600085815260208120601f198616915b82811015612e1b57888601518255948401946001909101908401612dfc565b5085821015612e395787850151600019600388901b60f8161c191681555b5050505050600190811b01905550565b600060018201612e6957634e487b7160e01b600052601160045260246000fd5b5060010190565b604081526000612e83604083018561251b565b90508260208301529392505050565b634e487b7160e01b600052603260045260246000fd5b60008351612eba8184602088016124f7565b605f60f81b9083019081528351612ed88160018401602088016124f7565b6b5f636572746966696361746560a01b60019290910191820152600d0194935050505056fea26469706673582212209dd2ba67872c6d8a3de4a5e03f47ad7a74a8b25451a2356e17a8f2dcb9df854164736f6c63430008130033",
  "linkReferences": {},
  "deployedLinkReferences": {}
}